{
  "contractName": "ChainList",
  "abi": [
    {
      "anonymous": false,
      "inputs": [
        {
          "indexed": true,
          "internalType": "uint256",
          "name": "_id",
          "type": "uint256"
        },
        {
          "indexed": true,
          "internalType": "address",
          "name": "_seller",
          "type": "address"
        },
        {
          "indexed": true,
          "internalType": "address",
          "name": "_buyer",
          "type": "address"
        },
        {
          "indexed": false,
          "internalType": "string",
          "name": "_name",
          "type": "string"
        },
        {
          "indexed": false,
          "internalType": "uint256",
          "name": "_price",
          "type": "uint256"
        }
      ],
      "name": "LogBuyArticle",
      "type": "event"
    },
    {
      "anonymous": false,
      "inputs": [
        {
          "indexed": true,
          "internalType": "uint256",
          "name": "_id",
          "type": "uint256"
        },
        {
          "indexed": true,
          "internalType": "address",
          "name": "_seller",
          "type": "address"
        },
        {
          "indexed": false,
          "internalType": "string",
          "name": "_name",
          "type": "string"
        },
        {
          "indexed": false,
          "internalType": "uint256",
          "name": "_price",
          "type": "uint256"
        }
      ],
      "name": "LogSellArticle",
      "type": "event"
    },
    {
      "constant": true,
      "inputs": [
        {
          "internalType": "uint256",
          "name": "",
          "type": "uint256"
        }
      ],
      "name": "articles",
      "outputs": [
        {
          "internalType": "uint256",
          "name": "id",
          "type": "uint256"
        },
        {
          "internalType": "address payable",
          "name": "seller",
          "type": "address"
        },
        {
          "internalType": "address",
          "name": "buyer",
          "type": "address"
        },
        {
          "internalType": "string",
          "name": "name",
          "type": "string"
        },
        {
          "internalType": "string",
          "name": "description",
          "type": "string"
        },
        {
          "internalType": "uint256",
          "name": "price",
          "type": "uint256"
        }
      ],
      "payable": false,
      "stateMutability": "view",
      "type": "function"
    },
    {
      "constant": false,
      "inputs": [
        {
          "internalType": "string",
          "name": "_name",
          "type": "string"
        },
        {
          "internalType": "string",
          "name": "_description",
          "type": "string"
        },
        {
          "internalType": "uint256",
          "name": "_price",
          "type": "uint256"
        }
      ],
      "name": "sellArticle",
      "outputs": [],
      "payable": false,
      "stateMutability": "nonpayable",
      "type": "function"
    },
    {
      "constant": false,
      "inputs": [
        {
          "internalType": "uint256",
          "name": "_id",
          "type": "uint256"
        }
      ],
      "name": "buyArticle",
      "outputs": [],
      "payable": true,
      "stateMutability": "payable",
      "type": "function"
    },
    {
      "constant": true,
      "inputs": [],
      "name": "getNumberOfArticles",
      "outputs": [
        {
          "internalType": "uint256",
          "name": "",
          "type": "uint256"
        }
      ],
      "payable": false,
      "stateMutability": "view",
      "type": "function"
    },
    {
      "constant": true,
      "inputs": [],
      "name": "getArticlesForSale",
      "outputs": [
        {
          "internalType": "uint256[]",
          "name": "",
          "type": "uint256[]"
        }
      ],
      "payable": false,
      "stateMutability": "view",
      "type": "function"
    }
  ],
  "bytecode": "0x6080604052600080546001600160a01b03191633179055610b9f806100256000396000f3fe60806040526004361061004a5760003560e01c80631cc4baa81461004f5780637f6be3da1461006e57806389da85d3146100d3578063d2609515146100fa578063edcfafe614610236575b600080fd5b61006c6004803603602081101561006557600080fd5b503561037e565b005b34801561007a57600080fd5b5061008361063b565b60408051602080825283518183015283519192839290830191858101910280838360005b838110156100bf5781810151838201526020016100a7565b505050509050019250505060405180910390f35b3480156100df57600080fd5b506100e8610769565b60408051918252519081900360200190f35b34801561010657600080fd5b5061006c6004803603606081101561011d57600080fd5b81019060208101813564010000000081111561013857600080fd5b82018360208201111561014a57600080fd5b8035906020019184600183028401116401000000008311171561016c57600080fd5b91908080601f01602080910402602001604051908101604052809392919081815260200183838082843760009201919091525092959493602081019350359150506401000000008111156101bf57600080fd5b8201836020820111156101d157600080fd5b803590602001918460018302840111640100000000831117156101f357600080fd5b91908080601f016020809104026020016040519081016040528093929190818152602001838380828437600092019190915250929550509135925061076f915050565b34801561024257600080fd5b506102606004803603602081101561025957600080fd5b50356108e7565b60405180878152602001866001600160a01b03166001600160a01b03168152602001856001600160a01b03166001600160a01b031681526020018060200180602001848152602001838103835286818151815260200191508051906020019080838360005b838110156102dd5781810151838201526020016102c5565b50505050905090810190601f16801561030a5780820380516001836020036101000a031916815260200191505b50838103825285518152855160209182019187019080838360005b8381101561033d578181015183820152602001610325565b50505050905090810190601f16801561036a5780820380516001836020036101000a031916815260200191505b509850505050505050505060405180910390f35b6000600254116103bf5760405162461bcd60e51b8152600401808060200182810382526024815260200180610b036024913960400191505060405180910390fd5b6000811180156103d157506002548111155b61040c5760405162461bcd60e51b8152600401808060200182810382526023815260200180610b486023913960400191505060405180910390fd5b600081815260016020526040902060028101546001600160a01b03161561047a576040805162461bcd60e51b815260206004820152601860248201527f41727469636c652077617320616c726561647920736f6c640000000000000000604482015290519081900360640190fd5b60018101546001600160a01b03163314156104c65760405162461bcd60e51b8152600401808060200182810382526021815260200180610b276021913960400191505060405180910390fd5b348160050154146105085760405162461bcd60e51b815260040180806020018281038252602e815260200180610ad5602e913960400191505060405180910390fd5b6002810180546001600160a01b0319163317905560018101546040516001600160a01b0391909116903480156108fc02916000818181858888f19350505050158015610558573d6000803e3d6000fd5b5060028082015460018084015460058501546040805160208101839052818152600388018054600019968116156101000296909601909516969096049086018190526001600160a01b0394851695929094169387937f5d28bc06e6f0c45405abfe77bd77236c767f9bd9d044ae2d954a415a2b4823e09390929181906060820190859080156106285780601f106105fd57610100808354040283529160200191610628565b820191906000526020600020905b81548152906001019060200180831161060b57829003601f168201915b5050935050505060405180910390a45050565b60606002546000141561065d5750604080516000815260208101909152610766565b606060025460405190808252806020026020018201604052801561068b578160200160208202803883390190505b509050600060015b60025481116106f2576000818152600160205260409020600201546001600160a01b03166106ea5760008181526001602052604090205483518490849081106106d857fe5b60209081029190910101526001909101905b600101610693565b5060608160405190808252806020026020018201604052801561071f578160200160208202803883390190505b50905060005b828110156107605783818151811061073957fe5b602002602001015182828151811061074d57fe5b6020908102919091010152600101610725565b50925050505b90565b60025490565b6002805460019081018083556040805160c0810182528281523360208083019182526000838501818152606085018c8152608086018c905260a086018b905296825287835294902083518155915195820180546001600160a01b039788166001600160a01b031991821617909155935196820180549790961696909316959095179093559051805192939261080a9260038501920190610a3c565b5060808201518051610826916004840191602090910190610a3c565b5060a08201518160050155905050336001600160a01b03166002547fe2ebb0c522a8b90a93f45a5dfd3c0e0516b81519fdf199efe51c474642fe8cec85846040518080602001838152602001828103825284818151815260200191508051906020019080838360005b838110156108a757818101518382015260200161088f565b50505050905090810190601f1680156108d45780820380516001836020036101000a031916815260200191505b50935050505060405180910390a3505050565b60016020818152600092835260409283902080548184015460028084015460038501805489516101009982161599909902600019011692909204601f810187900487028801870190985287875292966001600160a01b039283169692909316949192909183018282801561099c5780601f106109715761010080835404028352916020019161099c565b820191906000526020600020905b81548152906001019060200180831161097f57829003601f168201915b5050505060048301805460408051602060026001851615610100026000190190941693909304601f8101849004840282018401909252818152949594935090830182828015610a2c5780601f10610a0157610100808354040283529160200191610a2c565b820191906000526020600020905b815481529060010190602001808311610a0f57829003601f168201915b5050505050908060050154905086565b828054600181600116156101000203166002900490600052602060002090601f016020900481019282601f10610a7d57805160ff1916838001178555610aaa565b82800160010185558215610aaa579182015b82811115610aaa578251825591602001919060010190610a8f565b50610ab6929150610aba565b5090565b61076691905b80821115610ab65760008155600101610ac056fe56616c75652070726f766964656420646f6573206e6f74206d61746368207072696365206f662061727469636c6554686572652073686f756c64206265206174206c65617374206f6e652061727469636c6553656c6c65722063616e6e6f742062757920686973206f776e2061727469636c6541727469636c652077697468207468697320696420646f6573206e6f74206578697374a265627a7a7231582074cc521037cb0c51ef046ffa7cb47df8d2c5a00615813dfdd8105149abcb7c6164736f6c63430005100032",
  "source": "// SPDX-License-Identifier: MIT\npragma solidity >=0.4.22 <0.9.0;\n\nimport \"./Ownable.sol\";\n\ncontract ChainList is Ownable {\n    // Custom types\n    struct Article {\n        uint id;\n        address payable seller;\n        address buyer;\n        string name;\n        string description;\n        uint256 price;\n    }\n\n    // State variables\n    mapping(uint => Article) public articles;\n    uint articleCounter;\n    address seller;\n    address buyer;\n    string name;\n    string description;\n    uint256 price;\n\n    // Events\n    event LogSellArticle (\n        uint indexed _id,\n        address indexed _seller,\n        string _name,\n        uint256 _price);\n\n    event LogBuyArticle (\n        uint indexed _id,\n        address indexed _seller,\n        address indexed _buyer,\n        string _name,\n        uint256 _price);\n\n\n\n    // kill the smart contract\n    // function kill() public onlyOwner {\n    //selfdestruct(onlyOwner);\n    // }\n\n    // sell an article\n    function sellArticle(string memory _name, string memory _description, uint256 _price) public {\n        // a new article\n        articleCounter++;\n\n        // store this article\n        articles[articleCounter] = Article(\n            articleCounter,\n             // Invalid type for argument in function call. Invalid implicit conversion from address to address payable requested!! \n            msg.sender,\n            address(0),\n            _name,\n            _description,\n            _price\n        );\n\n        // trigger the event\n        emit LogSellArticle(articleCounter, msg.sender, _name, _price);\n    }\n\n    // buy an article\n    function buyArticle(uint _id) public payable {\n\n        // we check whether there is at least one article\n        require(articleCounter > 0, \"There should be at least one article\");\n\n        // we check whether the article exists\n        require(_id > 0 && _id <= articleCounter, \"Article with this id does not exist\");\n\n        // we retrieve the article\n        Article storage article = articles[_id];\n\n        // we check whether the article has not already been sold\n        require(article.buyer == address(0), \"Article was already sold\");\n\n        // we don't allow the seller to buy his/her own article\n        require(article.seller != msg.sender, \"Seller cannot buy his own article\");\n\n        // we check whether the value sent corresponds to the article price\n        require(article.price == msg.value, \"Value provided does not match price of article\");\n\n        // keep buyer's information\n        article.buyer = msg.sender;\n\n        // the buyer can buy the article\n        article.seller.transfer(msg.value);\n\n        // trigger the event\n        emit LogBuyArticle(_id, article.seller, article.buyer, article.name, article.price);\n    }\n\n    // fetch the number of articles in the contract\n    function getNumberOfArticles() public view returns (uint) {\n        return articleCounter;\n    }\n\n    // fetch and returns all article IDs available for sale\n    function getArticlesForSale() public view returns (uint[]memory) {\n        // we check whether there is at least one article\n        if(articleCounter == 0) {\n            return new uint[](0);\n        }\n\n        // prepare output arrays\n        uint[] memory articleIds = new uint[](articleCounter);\n\n        uint numberOfArticlesForSale = 0;\n        // iterate over articles\n        for (uint i = 1; i <= articleCounter; i++) {\n            // keep only the ID for the article not already sold\n            if (articles[i].buyer == address(0)) {\n                articleIds[numberOfArticlesForSale] = articles[i].id;\n                numberOfArticlesForSale++;\n            }\n        }\n\n        // copy the articleIds array into the smaller forSale array\n        uint[] memory forSale = new uint[](numberOfArticlesForSale);\n        for (uint j = 0; j < numberOfArticlesForSale; j++) {\n            forSale[j] = articleIds[j];\n        }\n        return forSale;\n    }\n}\n",
  "sourcePath": "C:\\Users\\user\\ChainSkills\\Training\\chainlist\\chainlist-truffle5\\contracts\\ChainList.sol",
  "compiler": {
    "name": "solc",
    "version": "0.5.16+commit.9c3226ce.Emscripten.clang"
  },
  "schemaVersion": "3.4.4",
  "updatedAt": "2022-01-27T15:32:44.095Z",
  "networkType": "ethereum",
  "devdoc": {
    "methods": {}
  },
  "userdoc": {
    "methods": {}
  }
}